:1040000000800020F9410000E1410000E141000092
:1040100000000000000000000000000000000000A0
:10402000000000000000000000000000E14100006E
:104030000000000000000000E14100004D420000CF
:10404000E1410000E1410000E1410000E1410000E8
:10405000E1410000E1410000E1410000E5410000D4
:10406000E14100002D410000E1410000E14100007C
:10407000E1410000E14100003D410000E14100005C
:10408000E1410000E1410000E1410000E1410000A8
:1040900000000000E1410000E1410000E1410000BA
:1040A000E1410000E1410000E1410000E141000088
:1040B0000000000010B5064C2378002B07D1054BFB
:1040C000002B02D0044800E000BF0123237010BD84
:1040D0009000002000000000106D0000044B10B59F
:1040E000002B03D00349044800E000BF10BDC046C8
:1040F0000000000094000020106D000010B50121A8
:104100000D2000F063FA10BD10B5FA2401216400FF
:104110000D2000F0A7FA200000F0D6F800210D20B5
:1041200000F0A0FA200000F0CFF810BD10B5024852
:1041300000F0C7FD10BDC046E802002010B50248DF
:1041400000F0BFFD10BDC046AC000020F7B5012453
:104150000326154F1549380000F05EFB1449154839
:1041600000F05AFB1449154800F056FB1449154855
:1041700000F052FB1449154800F04EFB144D154950
:10418000280000F049FB390000962300019400222A
:10419000114800F02BFD00962900019423232422CE
:1041A0000E4800F023FDF7BD240500200008004262
:1041B000000C004228050020001000422C050020C1
:1041C0000014004230050020001800423405002091
:1041D00038050020001C0042E8020020AC0000204E
:1041E000FEE70000034B10B51B68002B00D098477A
:1041F00010BDC0463C05002070B50F490F4CA142D0
:1042000004D100F089F800F045FEFEE70C4D0023D4
:104210008D42F6D0CA18E818A24205D3094B824253
:10422000EFD00949002204E0006804331060F1E790
:1042300004C38B42FCD3E4E7000000209000002080
:10424000146D000090000020780B002010B500F0E5
:1042500060F8002801D100F051F810BD014B186042
:104260007047C0463C050020F7B51348012284463C
:104270001249134C8E68636805689B0E13400192C7
:1042800088686268019F920E3A4067463F68934291
:104290000ED1BD420CD186420AD35B19FA2548687B
:1042A000AD00861B07486B437043000DC018FEBD70
:1042B0003D0013000600E3E74005002010E000E0A9
:1042C00000ED00E05555000070B5041E10D0FFF75A
:1042D000CBFF050000F01CF8FFF7C6FF054B401BA5
:1042E0009842F7D9FA23013C9B00ED18002CF3D13A
:1042F00070BDC046E70300007047000010B5034AD8
:1043000013680133136000F04BFA10BD4005002024
:1043100070470020704700001E2270B5464847498C
:10432000436893431C3A1343436008238C69234337
:104330008B61434C434B9C829C8A14439C82DC6877
:104340001442FCD00124404A14701578254203D051
:1043500055786DB2002DF8DB01249460547864B276
:10436000002CFBDB394C5460547864B2002CFBDB2E
:104370008224E4015480547864B2002CFBDB0224D4
:104380009C840E34DD682542FCD0314CDC62102464
:10439000DD682542FCD09D8C2E4C2C439C8410243F
:1043A000DD682542FCD002249D8C80262C439C8411
:1043B0004024DD683542FCD0DD682542F9D0102468
:1043C000DD682542FCD000249460547864B2002C4F
:1043D000FBDB214C5460547864B2002CFBDB1C6A7C
:1043E0001E4D2C4080251C621C6AAC431C620323BA
:1043F00093601B4B536053785BB2002BFBDB0023B5
:10440000FF240B72174A4B728B72CB72164B1A60D9
:10441000164B174A1B6811689A065B01C90E2340A8
:10442000520F12020B431343124A13858023426832
:104430001343436070BDC04600400041000400408B
:104440000C06000000080040000C004001050100BF
:10445000B905FF7D040A000000070300FFFCFFFF11
:1044600003060100006CDC020000002024608000D4
:104470002060800000400042FA21314B10B51868DE
:10448000890001F0E1FF2F4B0138984256D82E49A0
:104490002E4A4860C020136A00061B021B0A034311
:1044A0001362002407238C600B608021136A0906C5
:1044B0001B021B0A0B431362FC22254B196A0A4399
:1044C0001A62FC22196A92010A431A62A022196A2E
:1044D000D2020A431A6220000021013400F076F86B
:1044E000132CF8D11B4B1C005A7852B2002AFBDB6C
:1044F000194A5A80194B1A00597EC9090129FBD063
:10450000E421C90099803F21D970537EDB09012B3A
:10451000FBD0C02300205B011361907000F024F8F1
:1045200063785BB2002BFBDB0D4B0E4A6380D379C3
:10453000DB09012BFBD04123537010BDFEE7C046C1
:1045400000000020FFFFFF0010E000E000ED00E0B1
:1045500000040040000C00401E40000000400042EB
:104560002140000000480042164A00B51300517E69
:10457000C9090129FBD00138042816D81969124A43
:104580000A400F211A615A788A4301F053FF030849
:10459000060B0300110001220A435A7000BD1100EE
:1045A0000322F9E711000222F6E7F02311691B0547
:1045B0000B430F21136153788B43190002230B43E4
:1045C0005370EBE700400042FFFFFFF0182330B5C7
:1045D0001D00040045430820204A55192856013083
:1045E00014D0032912D808006343D156D31801F020
:1045F00021FF02280E1B5868CB010221184A9B1884
:104600001A1840321170012282405A6030BD586839
:10461000CB010621124A9B181A1840321170012250
:1046200082405A609A61F1E75868CB0106210C4A32
:104630009B181A1840321170012282405A605A6148
:10464000E4E75868CB010221054A9B181A1840324A
:104650001170012282409A60D8E7C046B06700001E
:10466000004400411823F0B508245843114A131898
:104670001C5701341BD0012635005F688356BD40AE
:104680000D4ADB019A18906805420BD10C00601EA0
:104690008441D2194032107834400336A400B0432C
:1046A00020431070044A9B18002901D15D61F0BDC0
:1046B0009D61FCE7B06700000044004118224243BE
:1046C000F8B52C4E0300B218127A52B2140001321F
:1046D0000ED0481C00240C280AD801F0ABFE071F9E
:1046E0001F1F1F1F1F1F1F0B0B0B0B0001246442FA
:1046F0002000F8BD092905D100211800FFF766FF49
:104700000024F5E70A2901D10839F6E700240B292E
:10471000EED10A391800FFF759FFE9E71822534391
:10472000F218556801202C00F356134ADB016E087D
:104730009B18C9B204409E19002C0DD00F243036AE
:104740003278090122401143C9B25B1931704033FC
:104750001A7810431870D3E732000F2730321678DA
:104760005B19BE433143117040331A7810431870FF
:10477000BEE7C046B06700000044004110B5040029
:10478000FFF7BAFD014B1C6010BDC04604000020BD
:104790000122024B52421A607047C04604000020BA
:1047A000164A10B51368591C26D0013B1360002B24
:1047B00022D172B6124B134A0433934213D9124AD0
:1047C00001211000147D0C42FCD02021148BFF31FC
:1047D0009B085B0021431183D3610C4B13800123A1
:1047E000027D1A42FCD0BFF34F8F094B094ADA60B1
:1047F000BFF34F8FC046FDE710BDC0460400002048
:1048000000400000030200000040004102A5FFFF3D
:1048100000ED00E00400FA05016070479446F0B531
:104820009E1E721E96416246056892072F683606E4
:104830003A4332432A60072505AC24780068A40176
:104840002940214342680024022B00D05C0311431D
:1048500021434160F0BD30B5C0250368AD031C683D
:1048600012052A402243C0240904A4022140114316
:10487000196003685A6814435C6030BD0123026804
:1048800011680B43136003681A68D207FCD4DA6915
:10489000D207F9D470470223026811680B431360F2
:1048A0000268D3699B07FCD4704703681A7ED2075D
:1048B00002D41A7E9207FCD57047002203685A83FF
:1048C00070470368187E4007C00F70470368187E62
:1048D000C0097047802302685B42117E0B43137648
:1048E00070470368588B8007C00F70470223026827
:1048F000518B0B43538370470368187EC007C00F6A
:1049000070470368188DC0B2704703681A7ED207DB
:10491000FCD589B2012019857047012203689A7578
:104920007047012203681A75704700000368214A26
:1049300030B593422FD0204A93422FD01F4A934242
:104940002FD01F4A93422FD01E4A93422FD01E4A87
:1049500093421FD10E2319220121032599401B48A0
:10496000C024016099082B40AB40FC359D40890074
:104970000918A4000859A843C0259D402B000343F3
:104980000B518023DB011A43114B5A805A7852B2E3
:10499000002AFBDB30BD09231422DDE70A231522A0
:1049A000DAE70B231622D7E70C231722D4E70D23CF
:1049B0001822D1E700080042000C0042001000421B
:1049C0000014004200180042001C004200E100E018
:1049D000000C0040F8B504000F0016001D00FFF7A2
:1049E000A5FF2000FFF74AFF1C21BB000B40710709
:1049F0002268090C0B431360842322689375012FEE
:104A00001AD11021012E00D008390C4B69431868C7
:104A1000C00001F019FD0722216802408B89520372
:104A2000DB04DB0C13438B81226803049089DB0CCD
:104A3000400B400318439081F8BDC04600000020A1
:104A40000120704710B50368014A1B6A984710BDE2
:104A5000130400000300FC33D9699A69914203D022
:104A6000DB69C018007D704701204042FBE710B5AC
:104A700004000069FFF702FF22000023FC3293616B
:104A8000D36186229200A4186360A36010BDF02059
:104A900001403039484248417047F0231B0119401A
:104AA000802306209B0099420AD00133FF33013056
:104AB000994205D0802302385B00994200D0002043
:104AC00070470F2001400020012903D00239481E01
:104AD0008141481C704700008923F0B5182685B035
:104AE00002919B000400C05C330008214343324D17
:104AF0001700EB185956FFF7E1FD304B0821E05C39
:104B000033004343EB185956FFF7D8FD2C4BE25CBA
:104B10000393022A09D11133E05CFF2805D0082154
:104B20004643AE197156FFF7C9FD8A26B600A05D4F
:104B3000FF2819D00121FFF749FD1822A35D214963
:104B40005A43AB56AD18DB0158188B2189006050D1
:104B50001D4901225B188C218900635069688A40D5
:104B60008D21890062501A600122029B1100206988
:104B7000FFF730FF39002000FFF78FFF39000500F5
:104B80002000FFF79EFF390006002000FFF77FFF9F
:104B900033000090290020690122FFF73FFE0B4BF4
:104BA0002069E25C039BE15CFFF755FE2069FFF79B
:104BB00072FE05B0F0BDC046B067000025020000DF
:104BC000270200001844004114440041260200005E
:104BD000802210B504005200002101F002FD2300E4
:104BE0000022FC335A6020009A6010BDF7B51D000A
:104BF00008AB1B780400009309AB1B7816000193E7
:104C000000234360FA239B008360114B0F0008339D
:104C100003601430FFF7DCFF20001D30FF30FFF78A
:104C2000D7FF89236A469B002761E654094B127817
:104C3000E554094B2000E2546A46084B1279E254CD
:104C40008A22293BFF3B9200A3541032A354FEBD9D
:104C5000306C000025020000260200002702000040
:104C60000300FC3358689B68C01A01D50130FF303F
:104C7000704710B5040020001D30FF30FFF7F0FF33
:104C80000028F8D12069FFF710FE10BD10B51430D0
:104C9000FFF7E6FF10BD0300FC3359689A689142A4
:104CA00004DB5A689868801AFF30704798685B6820
:104CB000C01A0138F9E710B51D30FF30FFF7EBFFE0
:104CC00010BD10B504000069FFF70BFE002805D0E9
:104CD0002069FFF716FE2069FFF708FE2069FFF73D
:104CE000F0FD002820D02069FFF70BFE2200FC32E7
:104CF0009369D1690133DBB28B4203D091696118AA
:104D0000087593618A239B00E35CFF2B0CD0200085
:104D10001430FFF7C0FF092806DC8B238D229B008F
:104D20009200E358A2581A602069FFF7E5FD0028B9
:104D30001AD020001D30FF30FFF792FF002822D04C
:104D400086239B00E31899685A68914218D08E21F7
:104D50009A684900A218515C9A680132D2B29A60EE
:104D6000C9B22069FFF7D1FD2069FFF7AFFD002828
:104D700005D02069FFF7AEFD2069FFF79EFD10BD4D
:104D800001214942ECE72069FFF7CBFDECE7000089
:104D900070B5040000690D00FFF7AEFD00283ED19C
:104DA000FF2686239B00E3185A6899680132324037
:104DB0008A4223D1EFF31083DB0710D41E4B5B68CC
:104DC000DB05DB0DEDD0103B5BB2002B10DA0F22C0
:104DD0001340083B9B08194A9B009B181B682069DD
:104DE000FFF78AFD0028DCD02000FFF76AFFD8E734
:104DF0009B08C033124A9B009B58F0E75A68013267
:104E000016409A68964205D08E215A684900A21829
:104E100055545E602069FFF780FD012070BD2000C1
:104E20001D30FF30FFF71CFF0028B9D12900206991
:104E3000FFF76BFDF1E7C04600ED00E01CED00E080
:104E400000E100E0030070B5FC33D9699A69040001
:104E500091421AD0DA698218157DDA690132D2B22C
:104E6000DA618A239B00E35CFF2B0CD02000143016
:104E7000FFF711FF0A2806DD8C238D229B0092008C
:104E8000E358A2581A60280070BD01256D42E8E77A
:104E90007047000010B5FFF7EFFA01F061FBFFF774
:104EA000F7FF0120FFF710FA084C200000F09CFAF1
:104EB000200000F053FBFFF721F9FFF725F9044B21
:104EC000002BFAD000E000BFF7E7C0466C050020D9
:104ED00000000000F7B506000D000C008B180193D0
:104EE000019B671B9C4207D0336821781B68300008
:104EF000984701340028F3D13800FEBD704710B543
:104F0000040001F025F8200010BD0000F0B5822952
:104F100019D1C3B2294D5A01AA189169284C8001B0
:104F20000C40C0218905214391612649083340186E
:104F30007021506128685B011A5C8A43110030229D
:104F40000A431A54F0BD0029FCD1C026C1B21B4C43
:104F50004B01E3189A681A4DB6052A4032439A600D
:104F6000194A800182185A600A000727246808320B
:104F70005201115DB9430F000121394311559F6959
:104F800010493D4040182E439E6158617020115DCC
:104F90008143080010210143115599680B48A2185C
:104FA000084080214903014399609968890B89036E
:104FB0009960402311790B431371C3E7240A002041
:104FC000FFFFFF8F9805002058070020FF3F00F0EB
:104FD000EFF3108303600123436072B670470368E8
:104FE000002B02D162B6BFF36F8F7047F7B5060092
:104FF000FC36B3690400002B18D1B2277F00C55DD1
:105000006846FFF7E5FF019BEDB2013B02D3E55D8A
:10501000EDB2FAE768460193FFF7E1FF002D01D1F9
:105020000020FEBD706E336EC01AFAE76846FFF7C7
:10503000CFFFD8220025019B5200013B02D3A55C83
:10504000EDB2FAE768460193FFF7C9FF002DE7D0FC
:10505000D6235B00E058043BE358E5E710B544680D
:10506000FC3043690B48DBB25A01A218916808333F
:105070000840802149030143916091685B01890BDD
:10508000890391602268D318402219790A431A7162
:1050900010BDC046FF3F00F0F7B50500FC356B6959
:1050A0004268DBB219000400083110684901411858
:1050B000C979C90711D55B01D21893689B049B0C71
:1050C0000CD12000FFF7CAFF63681A686B69DBB276
:1050D00008335B01D3187F22DA71F7BDE969002933
:1050E00023D16B66230001266933FF33EE616846E6
:1050F0005360B227FFF76CFF7F00B221019BFF31A5
:10510000013B5A1C38D0D822E6555200A25C581EEA
:10511000D2B26254625C8446002A04D1200001931A
:10512000FFF79CFFE9E76346EBE7D62149006350B0
:105130000023EB6123001D33FF3353606846D826FC
:10514000FFF746FF01277600B221019BFF31013BAB
:105150005A1C11D0B222A7555200A25C581ED2B2DE
:105160006254625C8446002A04D120000193FFF758
:1051700075FFE9E76346EBE768460193FFF72FFF0A
:10518000A2E7F7B5060068463400FFF721FF0027C5
:10519000FF22019BFC34013B0DD3E068216988426A
:1051A00004DBE7682069D71B3F18F4E72769E1684B
:1051B0007F1A013FEFE768460193FFF710FFA369ED
:1051C0006846002B52D1FFF703FFB221019B490033
:1051D000013B5A1C0CD0755C5A1EEDB2002D05D156
:1051E00068460193FFF7FBFE2800FEBD1300F0E7C1
:1051F000684601930025FFF7F2FEFF22236EBD42B1
:1052000014D0616E994211D9591CF3182166FF33ED
:10521000587FE36821690133C0B213408B4203D049
:10522000E16871180872E3600135E7E7626E9A423F
:10523000DAD1002323660133A3616846B224FFF765
:10524000C7FE6400B2220021019BFF32013B581CC3
:10525000C6D03155B05C5F1E002805D0B154300077
:105260000193FFF7FBFEEDE73B00F0E7FFF7B0FE31
:10527000D821019B4900013B5A1C06D0755C5A1E7F
:10528000EDB2002DACD01300F6E768460193FFF7AE
:10529000A6FED623D4225B0000259C465200B358BC
:1052A000BD4203D061467158994220D86246B25837
:1052B0009A4299D1D42200235200B3506846A36188
:1052C000D824FFF785FE6400B2220021019BFF3243
:1052D000013B581C00D183E73155B05C5F1E0028AC
:1052E00019D0B15430000193FFF7B8FEECE7591C18
:1052F000B150FF21F3186933FF331878E368C0B267
:1053000001330B4021698B4203D0E16871180872A8
:10531000E3600135C3E73B00DBE710B50400FFF7AE
:1053200030FF2300FC331969DA68914203D01B690E
:10533000E418207A10BD01204042FBE710B50400BC
:10534000FC34FFF71EFFE0682369C01A01D5013065
:10535000FF3010BDF0B585B0019200910500FFF758
:1053600010FF02A8FFF734FE01200024FF26039B54
:1053700040425A1E531C1FD02B00FC3301998C4213
:1053800018D2D9681F69C91B01D50131FF31002925
:1053900010D01969DF688C460100BC4506D0196938
:1053A0001F69691801373740097A1F61009F395515
:1053B0000134E3E7013ADDE702A80392FFF70FFEAD
:1053C000200005B0F0BD37B56B46DC1D00230D0095
:1053D000237001F01DF8210000F09AFF2B681818C7
:1053E000286020783EBD0000F7B500244B4B01211A
:1053F00005001F201C70FFF7E9F801211F20FFF7AF
:1054000031F9474B01211E201C70FFF7DFF8012105
:105410001E20FFF727F92023424A0F20D1690B43B2
:10542000D361012240490B7813430B703F4B19782D
:105430008143197006211C78214319703C490C786E
:1054400022430A701A7802401A70602219780A43BF
:105450001A70384B384A5A805F78FF09FCD13748B8
:10546000FEF7FCFE0123364C364E226830001178E0
:105470000B43137080223900520001F0B2F8226809
:105480009378DB07FCD456621F262F4B1B68590B01
:10549000980C9B01314030405B0FB14200D1052197
:1054A0001F2800D10238072B00D1043B314089016D
:1054B000178D0191254930400F40019939431185DD
:1054C000118D0700B143080038431085118D180372
:1054D0001F4B0B407F21034313851378C1200B40E2
:1054E000137004232268800011780B430C21137081
:1054F000226813898B43174913810B581B021B0A1F
:105500000B5080230B6011787E3B0B4313700123FB
:1055100000212B70104800F0EFFEF7BD8D05002034
:105520008C05002000040040584400413C440041E8
:1055300059440041000C004006400000295F000073
:10554000240A0020280A0020246080003FF8FFFF82
:10555000FF8FFFFF00E100E0280B0020007800280B
:1055600010D00121084B1B681A898A431A8108222E
:10557000198B0A431A830422198B0A431A830022C7
:10558000024B1A607047C046240A00201C0A002003
:1055900010B50F4A93699B0B9B039361136802221A
:1055A000FF331A729879823A02439A711A7A9207F3
:1055B000FCD57F24074A2140937A0800A3431900B1
:1055C000802301439172917A5B420B43937210BD29
:1055D000240A00200050004110B50C0000F018FF14
:1055E000210000F0CCFE002804D1034A93699B0BF4
:1055F0009B03936110BDC046240A0020F7B50D003F
:10560000832A19D1CBB2404C5A01A21891693F4864
:10561000AD010840C0218905014391613C492068E2
:105620006D187021083355615B011A5C8A431100C3
:1056300040220A431A54F7BD022A5FD1354B8A0033
:10564000D058002802D003685B699847DA204000F0
:1056500000F07AFC802204002B4E2F4B4660036042
:1056600052000021083000F0BCFF2200B2210023CC
:10567000FC324900D3605561136113669361D361B5
:1056800053666354443163500431635004316354AE
:10569000B221FF316354FF202B00034059010193D5
:1056A00071188F68194BAD003B40C027BF051F43E1
:1056B0008F600727019B366808335B01995DB9430A
:1056C0000F00032139439955230051696668014051
:1056D0001D334901FF3371184B60636852691B68C1
:1056E000024052019B1801221B18997A20000A439C
:1056F0009A72FFF7B3FC074BEC509CE711002800AF
:10570000FFF704FC97E7C046240A0020FFFFFF8F45
:1057100098050020700500206C6C000070B5050035
:105720000124064BA200D258002A06D021002800EE
:105730000134FFF763FF0A2CF3D170BD440500204C
:105740000B4BCAB20B488901C9185301C3185961E0
:1057500099690832890B89039961036852019A1883
:105760000223D3715179823B0B4353717047C0467A
:1057700098050020240A0020084B8A00D05810B554
:10578000002803D003689B68984710BDC9B2044B3A
:105790004901591888688004800CF6E770050020DC
:1057A000240A002010B50C00FFF7E6FF00280CD0FB
:1057B000064BE4B21B68083464011C19802362792B
:1057C0005B42134363710223E37110BD240A00207E
:1057D000F0B51C00304B85B01B6807000D0002922D
:1057E000002B55D02D4E3178C9B2002902D11E2090
:1057F000FEF738FF64233370294BAA00D0580028E5
:1058000008D0036822005B680299984704002000D2
:1058100005B0F0BD29003800FFF7AEFF844204D97F
:1058200029003800FFF7A8FF04000121EBB21D4E4C
:1058300003935B010193F21893689B0B9B039360A6
:10584000019A336802989B18FF335A7A0A435A72B6
:10585000154BA901C918220000F0BAFE002CD6D0C1
:1058600029003800FFF788FF0028D0D14021039B92
:10587000326808335B01D31818790143197101218B
:10588000D971019BD318FF339A7A0A439A72BEE703
:1058900001246442BBE7C0461C0A00208C0500209E
:1058A00070050020240A00205807002013B56B461D
:1058B000DC1D22000123FFF78BFF012801D1207896
:1058C00016BD01204042FBE770B5CBB2124A134827
:1058D0005C0189018918021951609168104D0833E3
:1058E0000D40802149032943402591609168890B2F
:1058F0008903916001685A018A1816793543157138
:1059000095796D06FCD55B01C918CB79DB07FCD511
:1059100000198068C0B270BD58070020240A00201A
:10592000FF3F00F070B50D0000211400FFF7CCFF21
:10593000A04200D9200000230349A34203D0CA5C3F
:10594000EA540133F9E770BD58070020F0B51E0096
:105950003F4B85B01B680F000192002B3FD0802386
:10596000DB019E423BD83B4C2178C9B2002902D1D1
:105970001F20FEF777FE642300252370364BBA0103
:10598000D3180293002E2CD0344B1B680393FF23B3
:105990003B401C0000930834039B64011C19A3794D
:1059A000DB0921D02E4B2F49186800F04DFD2E4BFE
:1059B0001721584300F048FD2C4BE279920713D48D
:1059C000DA5D002A01D10138F7D20122DA55009BB5
:1059D0005A01224B9B189A69920B92039A610125F6
:1059E0006D42280005B0F0BD0022204B3400DA558E
:1059F0003F2E09D9009B40245A01184B9B18802246
:105A0000996912060A439A6122000199029800F0EE
:105A1000DFFD009BA1045A01104B890C9B18029AD0
:105A20002D195A619A69361B920B92030A439A61A7
:105A3000009B039A08335B01D3180222DA7159796B
:105A4000823A0A435A71019B1B1901939AE7C04697
:105A50001C0A00208D05002098050020240A002043
:105A60000000002040420F00701101008F0500204F
:105A700070B50D001C000D4BAE01F6181100300082
:105A8000220000F0A5FDEDB209496D014D196E61CE
:105A9000AB69084A20001340AB61AB69A2049B0BC1
:105AA000920C9B031343AB6170BDC0469805002068
:105AB000240A0020FF3F00F0F7B5104B01901B783F
:105AC0000F001500002B0CD10D4B16001C78002C7C
:105AD00009D00C4E0C4834882018641900F078FD69
:105AE00034802800FEBD002EFBD03A19330000217F
:105AF0000198FFF7BDFF2418361AF4E718090020B3
:105B0000190A00201A0A002019090020F8B50F0010
:105B100016000024012A26D9100000F045FD0500DA
:105B2000380000F021FE03230222013040002870DB
:105B30006B7096420DD9397800290AD0531CDBB21C
:105B40000137A9549E4203D00232EC54D2B2F0E79E
:105B5000320029000548FFF7AFFF441EA041C4B240
:105B6000280000F02BFD2000F8BDC0466C05002089
:105B7000F0B50024012685B0184B0F0069461E7051
:105B800005000094FFF71FFC154B01A90B806A3B31
:105B9000FF3BCB715A330B72009B8C7109334B80E6
:105BA0000E4B4E7108711C703A00092F0FD00D4F2B
:105BB00009223E700C4E280000943480FFF77CFFD1
:105BC00069462800FFF7FFFB328808493C7028002F
:105BD000FFF772FF012005B0F0BDC0461809002094
:105BE00009020000190A00201A0A002019090020E1
:105BF00070B5CE7892B005000C00022E0BD18B79D7
:105C0000C9792E4809021943FFF7B2FF411E8841A6
:105C1000C0B212B070BD00F0FBFB210000F08CFBA5
:105C2000002803D0C117081AC00FF2E7012E0ED1C9
:105C3000E279A37912021A432149112A3CD8D2B23F
:105C4000002A39D02800FFF737FF0120E1E7032EB3
:105C5000DFD1A378002B28D0022B08D1E279A379D9
:105C6000120218491A432800FFF750FFD1E7012B11
:105C700005D1E279A37912021A431349F3E7032B02
:105C8000C7D10100412201A800F0ABFC00F0C0FB2D
:105C900001A900F061FB002805D0E279A379120286
:105CA0001A4301A9DFE70378FFDEE279A379120244
:105CB0001A430649032AC2D90A78C3E76C050020B3
:105CC000A46C0000886C00009C6C0000986C0000C4
:105CD000CBB204495B01C9188B699B0B9B038B6199
:105CE0007047C046240A002037B5050048780C00EC
:105CF0000B2810D800F09EFB061B0F2B0F404561B0
:105D0000494C5A5D097801AA002906D10223118065
:105D10002800FFF7ADFE01203EBD00231380284B75
:105D20001B78012B00D1137002230021F0E78A7841
:105D30000023012A03D101AA1380224BF0E7204A55
:105D40001370214A93699B0B9B039361E3E78C7863
:105D5000012C06D100211B4B01AA1C7011702300DD
:105D6000D6E70120002CD7D1154B174A187093693C
:105D70009B0B9B039361CFE789782800FFF708FC12
:105D8000C9E72800FFF734FFC6E701230F4ACCE735
:105D90000B780020DB06BFD12800FFF7BFFCA278FC
:105DA0000A4B0B481A6000F08FFACAE70123094A30
:105DB000BBE78A78074B1A60C3E70020ACE7C04610
:105DC0008E05002096050020240A00201C0A0020D1
:105DD000280B0020200A00204B4BF7B51E78050049
:105DE000002E00D07EE0494C23689A8B12070DD517
:105DF000082231009A833000FFF788F810222368C8
:105E0000FF33997A0A439A72414B1E6023689A8B3A
:105E100052071FD504229A833E4A1378002B0AD0DA
:105E20001378013BDBB213701378002B03D10121EF
:105E30001F20FEF717FC384A1378002B0AD013787E
:105E4000013BDBB213701378002B03D101211E201C
:105E5000FEF708FC2368FF331A7A920603D5202246
:105E6000597A0A435A721A7AD20623D5694608002B
:105E70002A4AC0CAC0C0A268920B9203A260402204
:105E8000587902435A7160230A7828001A422AD1AD
:105E9000FFF72AFF2368FF33002827D08022997953
:105EA00052420A439A711A7A520603D54022597A0D
:105EB0000A435A727F2601252368FF331E722F0082
:105EC000236808377F01DB19DB79002B07D0144BDF
:105ED000AA00D05800280DD003681B6898470135E8
:105EE000082DECD1F7BDFFF777FBD3E720210D4A52
:105EF0009171D8E700F08CFA290000F050FA23687D
:105F0000DF19FE71EBE7C046190A0020240A0020C1
:105F10001C0A00208D0500208C0500205807002059
:105F200070050020FF50004110B50248FFF754FFF4
:105F300010BDC0466C050020014B024A1A60704734
:105F4000240A00200050004110B500F02DFB10BDC8
:105F500010B500F033FB10BD0020704770B50F2660
:105F6000CB1D013902003240D5B22C00000930347B
:105F7000092A00DD07341C70013B8B42F2D170BD51
:105F800010B50C000B4B1868FFF7E8FF21000A4B17
:105F900008311868FFF7E2FF2100084B103118683C
:105FA000FFF7DCFF2100064B18311868FFF7D6FF1A
:105FB000202010BD0CA0800040A0800044A08000E4
:105FC00048A0800008B4024B9C46103808BC6047CB
:105FD000815F000070473F20704713B56B46026831
:105FE000D9710733546819000122A04716BD00007B
:105FF00070B50A260B7892B06E44023305000B7020
:106000003C220021300000F0ECFA394801AC069047
:10601000384824210790062020776846364AA17424
:106020002281364A364BA281FD3AFF3A8018C17769
:10603000684623390630C17768460730C17702A821
:10604000C1770720F277032608316944C87703A98E
:10605000CE7710212B366E443170092621851F31F1
:1060600069440E700CA9053E0E7033212380022373
:1060700069440B7006360DA90E7022493536A1868B
:106080003B216E44307010A86274E27702703D329A
:1060900069446A440B70137040210022E37023713D
:1060A0006371A37341336B44218719705A702B7D40
:1060B000C039A370A37263770133DBB2A3776A7D23
:1060C0000B200D0068441543C577312068440370E8
:1060D0003A23501C6B441870412302320A436B442C
:1060E0001A70210042220848FFF7E6FC12B070BD8A
:1060F0001001042402060524090400000102000026
:10610000080B0000070500006C05002008B4024BD6
:106110009C46103808BC6047F15F000070B5027DF6
:106120000B790C0000259A420BD10B784E78A12BED
:1061300009D1212E05D107221F492048FFF7BCFCB9
:106140000135280070BD212BFBD1202E2BD1072239
:1061500019491A48FFF7E6FB174B1A7859780902D4
:1061600011439A7812041143DA7812060A439621F1
:10617000C9008A421DD1DB79DB071AD4FA20FEF769
:10618000FDFA00210D48FFF7A3FD0125232ED8D1EC
:10619000E378A2781B021343094A002107481360E1
:1061A000FFF796FDCDE7222EEFD18A78024BDA7108
:1061B000D2E7FEF7EDFAE4E70C0000206C050020C2
:1061C0000800002008B4024B9C46103808BC604709
:1061D0001D61000010B5417D006A0131FFF7CCFA66
:1061E000034B1B6801335A1E9341181810BDC0465B
:1061F0001400002010B5417D006A0231FFF7D2FA89
:1062000010BD10B5417D006A0231FFF799FA10BD4B
:1062100070B50D00417D0400130002312A00006AB0
:10622000FFF794FB002801D10123636070BD0000DB
:1062300010B5054C23685A1C04D103685B69984764
:1062400003002060180010BD14000020074A03005E
:10625000106810B5411C03D001235B42136010BDD0
:10626000597D186A0131FFF721FBF8E7140000207F
:106270007047002070470000FA239B0010B5836030
:106280000F4B0022C3820300283383610D4B0400AF
:106290004260C2611800443323610830631D2162EB
:1062A0002060DA778323A362813BE3628033236338
:1062B00000F0AEF82100103100F07EF8200010BD93
:1062C00003020000B86C0000022110B5094B1A68E7
:1062D000437D5B01D318FF339C7A21439972437D40
:1062E0000133DBB25B01D3180122FF33997A0A43F1
:1062F0009A7210BD240A00207047000010B50249B0
:106300000248FFF7B9FF10BD6C050020280B0020E4
:1063100070B50E0000254468002C0BD023683100B6
:106320005B6820009847002802DB2D18E468F3E73B
:1063300001256D42280070BD70B50D004468002C29
:1063400008D0236829009B6820009847002802D1C4
:10635000E468F4E7200070BD70B50D0000264468C5
:10636000002C09D02368290020001B6998473618A3
:106370002D18F6B2E468F3E730002C7070BD70B5EC
:106380000D004468002C08D0236829001B682000F9
:106390009847002802D1E468F4E7200070BD70B58A
:1063A0000D004468002C06D023682000DB6829001B
:1063B0009847E468F6E770BDF0B58C79457803003E
:1063C0002A190020072A1FDC5A68824216D1596018
:1063D0001A78C8790A7112184D711A7000220B4D83
:1063E000D0B284420FD98F6858789600F75986004A
:1063F0000130775101325870F2E70200D06800286E
:10640000FBD1D160E4E70120F0BDC0464405002087
:106410000121064A10B5136805480B4004D18024B9
:10642000640004804360116010BDC0465C0B002016
:10643000600B002002B4714649084900095C49001C
:106440008E4402BC7047C046002243088B4274D37E
:1064500003098B425FD3030A8B4244D3030B8B4265
:1064600028D3030C8B420DD3FF22090212BA030C6E
:106470008B4202D31212090265D0030B8B4219D34F
:1064800000E0090AC30B8B4201D3CB03C01A52416F
:10649000830B8B4201D38B03C01A5241430B8B42B7
:1064A00001D34B03C01A5241030B8B4201D30B03A0
:1064B000C01A5241C30A8B4201D3CB02C01A5241C7
:1064C000830A8B4201D38B02C01A5241430A8B428A
:1064D00001D34B02C01A5241030A8B4201D30B0273
:1064E000C01A5241CDD2C3098B4201D3CB01C01A8D
:1064F000524183098B4201D38B01C01A5241430997
:106500008B4201D34B01C01A524103098B4201D384
:106510000B01C01A5241C3088B4201D3CB00C01AF1
:10652000524183088B4201D38B00C01A5241430869
:106530008B4201D34B00C01A5241411A00D201468E
:10654000524110467047FFE701B5002000F006F801
:1065500002BDC0460029F7D076E770477047C046B5
:1065600070B500260C4D0D4C641BA410A64209D139
:10657000002600F011F90A4D0A4C641BA410A64233
:1065800005D170BDB300EB5898470136EEE7B30074
:10659000EB5898470136F2E77C0000207C00002091
:1065A0007C0000208C00002010B5034B010018680F
:1065B00000F06AF810BDC0461800002010B5034B6B
:1065C0000100186800F016F810BDC0461800002041
:1065D000002310B59A4200D110BDCC5CC4540133E5
:1065E000F8E703001218934200D170471970013385
:1065F000F9E7000070B50500002910D00C1F2368D2
:10660000002B00DAE418280000F0B5F81D4A1368E2
:10661000002B05D163601460280000F0ADF870BD58
:10662000A34209D9216860188342F3D118685B68D6
:1066300041182160EEE713005A68002A01D0A242F7
:10664000F9D919685818A0420BD1206809185818B0
:1066500019608242E0D110685268411819605A608E
:10666000DAE7A04202D90C232B60D5E72168601835
:10667000824203D1106852684118216062605C60F8
:10668000CAE7C046680B0020032370B5CD1C9D43AC
:10669000083506000C2D1ED20C25A9421DD830004D
:1066A00000F069F8254A14682100002919D1244C0A
:1066B0002368002B03D1300000F044F8206029004B
:1066C000300000F03FF8431C2BD10C233000336026
:1066D00000F052F803E0002DDFDA0C2333600020D5
:1066E00070BD0B685B1B19D40B2B03D90B60CC1846
:1066F000256003E04B688C420DD11360300000F040
:106700003BF8200007220B30231D9043C31AE7D02B
:106710005A42E250E4E763600C00EFE70C0049687E
:10672000C3E70323C41C9C43A042E1D0211A3000DC
:1067300000F008F8431CDBD1C7E7C046680B002017
:106740006C0B0020002370B5064C05000800236088
:1067500000F014F8431C03D12368002B00D02B60F9
:1067600070BDC046740B00200023C25C0133002AB8
:10677000FBD1581E7047704770470000044A1368E9
:10678000002B00D1034B1818106018007047C0464A
:10679000700B0020780B0020F8B5C046F8BC08BC90
:1067A0009E467047F8B5C046F8BC08BC9E46704788
:1067B000000000000B0000000200000004000000C8
:1067C000FF00FFFFFFFF0B00000000000A000000B9
:1067D0000200000004000000FF00FFFFFFFF0A00AE
:1067E0000000000008000000040000001C00000081
:1067F000FF0000000000FF00000000000900000092
:10680000040000001C000000FF000100010009005E
:10681000000000000E000000040000001C0000004A
:10682000FF00000300030E00000000000F00000046
:10683000040000001C000000FF00010301030F0022
:106840000000000014000000050000002C00000003
:10685000FF0002000200040000000000150000001C
:10686000050000002C000000FF00030003000500ED
:106870000000000006000000040000001C000000F2
:10688000FF000001000106000000000007000000FA
:10689000040000001C000000FF00010101010700CE
:1068A0000000000012000000040000001C000000B6
:1068B000FF000003000302000000000010000000C1
:1068C000040000001C000000FF00000200020000A5
:1068D0000000000013000000040000001C00000085
:1068E000FF0001030103030000000000110000008D
:1068F000040000001C000000FF0001020102010072
:10690000FF00000000000000FF0000000000000089
:10691000FF00FFFFFFFFFF0000000000030000007A
:106920000100000002000000FF00FFFFFFFFFF006A
:10693000000000001600000002000000040000003B
:10694000FF00FFFFFFFF060000000000170000002F
:106950000200000004000000FF00FFFFFFFF07002F
:10696000000000000C000000030000000400000014
:10697000FF00FFFFFFFF0C00FF0000000000000011
:10698000FF00000000000000FF00FFFFFFFFFF000E
:10699000010000000B0000000300000004000000E4
:1069A000FF00FFFFFFFF0B00010000000A000000D6
:1069B0000300000004000000FF00FFFFFFFF0A00CB
:1069C000FF00000000000000FF00000000000000C9
:1069D000FF00FFFFFFFFFF00FF00000000000000BE
:1069E000FF00000000000000FF00FFFFFFFFFF00AE
:1069F0000000000002000000010000000200000092
:106A00000000FFFFFFFF020001000000080000007F
:106A100001000000020000000200FFFFFFFF08006D
:106A20000100000009000000010000000200000059
:106A30000300FFFFFFFF090000000000040000004A
:106A400001000000020000000400FFFFFFFF04003F
:106A5000000000000500000001000000020000002E
:106A60000500FFFFFFFF050001000000020000001D
:106A700001000000020000000A00FFFFFFFF02000B
:106A800001000000030000000B00000004000000F3
:106A9000FF00FFFFFFFFFF00000000001B000000E1
:106AA0000B00000004000000FF00FFFFFFFFFF00DD
:106AB000000000001C0000000600000000000000B4
:106AC000FF00FFFFFFFFFF000000000018000000B4
:106AD0000600000000000000FF00FFFFFFFFFF00B6
:106AE0000000000019000000060000000000000087
:106AF000FF00FFFFFFFFFF00010000001600000085
:106B00000300000000000000FF00FFFFFFFFFF0088
:106B1000010000001700000003000000000000005A
:106B2000FF00FFFFFFFFFF00000000001600000055
:106B30000200000000000000FF00FFFFFFFFFF0059
:106B4000000000001700000002000000000000002C
:106B5000FF00FFFFFFFFFF00000000001300000028
:106B60000200000000000000FF00FFFFFFFFFF0029
:106B70000000000010000000020000000000000003
:106B8000FF00FFFFFFFFFF000000000012000000F9
:106B90000200000000000000FF00FFFFFFFFFF00F9
:106BA00000000000110000000200000000000000D2
:106BB000FF00FFFFFFFFFF00000000000D000000CE
:106BC000040000000C000000FF000100FFFF0D00AA
:106BD0000000000015000000050000000C0000008F
:106BE000FF000300FFFFFF000000000006000000A0
:106BF000040000000C000000FF000001FFFFFF0088
:106C00000000000007000000040000000C0000006D
:106C1000FF000101FFFFFF00000000000200000074
:106C200001000000020000001400FFFFFFFF02004F
:106C30000000000000000000914D0000D54E000053
:106C4000B74C0000734C00008D4C0000454E000016
:106C5000554A0000454A0000D94A00006F4A00002A
:106C6000414A0000000000000000000099500000B0
:106C7000555300003D5300001B530000FD4E000023
:106C8000FF4E0000ED4F000041726475696E6F2089
:106C90004D302050726F000004030904556E6B6E76
:106CA0006F776E0012010002EF020140032A4F804D
:106CB00000010102030100000000000000000000CC
:106CC000DB5F000011620000D75F0000F56100008B
:106CD000D56100004D6200003162000003620000D7
:106CE000F15F0000595F00001D610000815F00003E
:106CF000D55F0000F0FFFFFF00000000C56100004D
:106D00000D6100007362000071620000C55F000049
:046D1000000000007F
:106D140040420F00FFFFFFFFFFFFFFFF00C2010023
:106D240000000800FFFFFFFF1C000020000000001F
:106D3400000000000000000000000000000000004F
:106D4400000000000000000000000000000000003F
:106D5400000000000000000000000000000000002F
:106D6400000000000000000000000000000000001F
:106D7400000000000000000000000000000000000F
:106D8400000000000000000000000000DD400000E2
:106D94004D410000395F0000FD620000B540000075
:04000003000041F9BF
:00000001FF
